:020000041000EA
:1000000000B5324B212058609868022188439860DF
:10001000D860186158612E4B002199600221596106
:100020000121F02299502B49196001219960352056
:1000300000F044F80222904214D00621196600F024
:1000400034F8196E01211966002018661A6600F04E
:100050002CF8196E196E196E052000F02FF8012189
:100060000842F9D1002199601B49196000215960AB
:100070001A491B48016001219960EB211966A021F2
:10008000196600F012F800219960164914480160C1
:100090000121996001BC002800D000471248134993
:1000A000086003C880F30888084703B5996A0420EC
:1000B0000142FBD001200142F8D103BD02B5186610
:1000C0001866FFF7F2FF186E186E02BD00000240BE
:1000D000000000180000070000035F00212200005C
:1000E000F4000018222000A00001001008ED00E03C
:1000F00000000000000000000000000074B24E7A12
:1001000000200420F7010010CB010010CD010010E9
:10011000C9010010C9010010C9010010C901001077
:10012000C9010010C9010010C9010010CF01001061
:10013000C9010010C9010010D1010010D301001045
:10014000C1010010C1010010C1010010C101001067
:10015000C1010010C1010010C1010010C101001057
:10016000C1010010C1010010C1010010C101001047
:10017000C1010010C1010010C1010010C101001037
:10018000C1010010C1010010C1010010C101001027
:10019000C1010010C1010010C1010010C101001017
:1001A000C1010010C1010010C1010010C101001007
:1001B000C1010010C1010010C1010010C1010010F7
:1001C000EFF30580103800BE00BE00BE00BE00BECA
:1001D00000BE00BEF2EB88714CF704106CF70410FF
:1001E0003802001090A31AE71E481F49086006C88D
:1001F00081F3088810471D480068002801D019487D
:10020000F3E70DA40ECC002902D000F012F8F9E7B4
:100210001749184A002000E001C19142FCD116495B
:100220008847164988471649884700BEFDE701C937
:1002300001C29A42FBD370476CF70410E000002023
:10024000E01200206C0905100000042000000420CA
:100250006C090510001004200010042000000000AC
:10026000704700000000000008ED00E0000000D032
:10027000E012002024DD00200131011021030010D4
:10028000F9300110F8B5C0460448054B10B583425B
:1002900003D0044B002B00D0984710BDE012002083
:1002A000E01200200000000006480749091A8B10E0
:1002B000C90FC91810B5491003D0044B002B00D04A
:1002C000984710BDE0120020E0120020000000005E
:1002D00010B5074C2378002B09D1FFF7D5FF054B4C
:1002E000002B02D0044800E000BF0123237010BDA2
:1002F000B815002000000000D85E0110054B10B5B5
:10030000002B03D00449054800E000BFFFF7CCFFF5
:1003100010BDC04600000000BC150020D85E0110D2
:1003200010B513F02BF810480BF0F8FD002816D18B
:100330000E4813F071F80BF097FD0D490D480E4B68
:100340000E4A0BF09FFD041E04D10D4813F064F813
:10035000200010BD0B4813F05FF80124F8E70A48AD
:1003600013F05AF80124F3E747420000F05E011051
:1003700098110020A4110020102700000400400064
:10038000105F0110FC5E0110D85E011010B507F07F
:10039000CFFC10BDF8B501230B72040007F0FCFC84
:1003A0000500431C0BD10F4B186859680E4B22688F
:1003B0009860D9601900200052699047F8BD01F09B
:1003C000CDFDFA2206000F00002328000021920034
:1003D00011F0B4F9801979410029E7DA01200349C5
:1003E0004042E3E7E8790110B8110020FFFFFF7FEA
:1003F00070B5094D04002B78002B08D00123074964
:1004000020000B722368DB699847012070BD01F062
:10041000C1FF01232B70F1E715DD0020D011002072
:1004200010B50400036804499B69984723682000BD
:1004300002491B6A984710BDB8110020D011002056
:10044000002070477047C04610B501F087FD0029B5
:1004500005D0FA220023920010F034FE10BDFA21DC
:10046000890010F0F1FDF9E78368002B04D107E063
:100470001A68002A06D013008B42F9D1002005E04B
:10048000030008331960002301200B607047C04649
:10049000020083680832002B04D109E01A001B68AF
:1004A000002B05D08B42F9D11B680120136000E0BE
:1004B000002070474368002B04D107E01A68002A27
:1004C00005D013008B42F9D1002004E0031D196010
:1004D000002301200B6070474368021D002B04D1EC
:1004E00009E01A001B68002B05D08B42F9D11B686C
:1004F0000120136000E000207047C046F0B5574669
:10050000DE464646C0B53E4B82B01A685B68009234
:10051000019383688246002B2CD0082353449B46CA
:1005200001F01CFD53469B6804000D005F46002B44
:1005300020D000221E0094469846B268F36820003E
:100540002900801A9941002902DB14001D00BC46D5
:1005500037003668002EF0D162464346002A48D064
:10056000116850460B6813604B68984753469B6868
:10057000002BD5D153465C68002C29D00025564667
:10058000237A002B31D02100636825723000984710
:100590002468002CF4D1B168B246002918D0009C20
:1005A000019D0E0003E004000D00002E0ED033006C
:1005B00022009868D9682B00121A8B413668002BEC
:1005C000F1DCF2D1002AEED1002EF0D10094019599
:1005D000009B019C5246180021001361546102B037
:1005E000E0BCBB46B246A846F0BD2468002CC7D18B
:1005F000D1E7190053465C68002CBFD1CFE7C04655
:10060000E87901108023DB051868000F7047C046A9
:100610000FB400B5084883B012F0FEFE049B002B17
:1006200007D005A91800019112F04CFD034812F003
:10063000F3FE012012F05EFD1C5F0110987701109F
:1006400070B50F4C0F4D104A24184D41A900A00F52
:100650000843A90F69400D4B604011F06FF84A0143
:10066000C30E1343CA0E58405140094B094A11F0BA
:1006700065F84A00C30F1343CA0F5840514070BD7C
:10068000157C4A7FB979379EB9E5E41C6D4758BFA0
:10069000BB49D094EB113113F0B5046845680600EE
:1006A00023002A00C6468068F16803430A4300B568
:1006B000134304D101F052FC03000B43FAD023068C
:1006C0002A0A60402F061A43230A3B43070CBC4604
:1006D00069404B40984663460F041F434240030461
:1006E0005A4043467B4032607360C20E4B01134355
:1006F000C90E40010843B360A10FAB000B43A20039
:1007000012196B41F060D101580E520EDB01084303
:100710001A4304001500430FD1001943C00000190B
:10072000694180BCB846F0BDF0B5DE4657464E463E
:100730004546E0B5AD4C97B005942478002C00D127
:10074000D5E00EAB0D93AA4BAA4F0293AA4BAB4D2B
:100750009B465B461E685C689B680B935B46DB6848
:100760000C93A74B05931B78DBB2069301F0F6FBC5
:10077000FFF766FFA34B70409B69614008900A91A8
:10078000DB0433D5A04BDA6BE0231340402B2DD094
:10079000EFF3058399469D4B3E68984600239A46A1
:1007A0002B004D467C68994630002100002D1AD060
:1007B00001F0DEFBEFF3108272B643461B68002B9C
:1007C000FBD0BFF35F8F3B68B34212D0BFF35F8FA4
:1007D00043465146196082F310883E687C683000B9
:1007E0002100002DE4D101F0B9FAE3E710F0D4FACA
:1007F000CEE77B68A342E9D1824B1400DE6901F0A9
:10080000ADFB0A220023801859414D4602000B1E01
:1008100002DA01227E4B52420CC72A686B68100034
:1008200019000127801859413740074300220090E2
:1008300001912F606960BFF35F8F744B1A6084F37E
:1008400010887449029B8C461B787349DB00634413
:100850009868884249D00021FFF7F2FE089D0A9C63
:1008600045404C40EFF3108672B6684A1368002B7F
:10087000FCD038000199FFF7E3FE0B9B58400C9B1E
:100880005940BFF35F8F059B069A1B78934208D0AF
:100890005B460CCB5C405B4655409A68DB68504039
:1008A00059405F460D9B0E955C609860D9601800BA
:1008B000FFF7F2FE109A119B0E9C0F9DBA60FB6031
:1008C000059A3C607D6013780133DBB21370BFF38F
:1008D0005F8F00224D4B1A6086F3108817B0F0BC72
:1008E000BB46B246A946A046F0BD9A60B3E74B4B63
:1008F000009001919C464A4B4A4C9846A146656837
:100900002468A10DAB02A2020B43100019000019CC
:1009100069410290039102990027890E8A46039942
:10092000890101915146019808430299019089017A
:10093000009100980199001BA9410D006146040037
:1009400040C98C46A4197D414145DAD14B461C6013
:100950005D600EAB1800069407950D9301F020FC26
:100960000E9B0F9C08930994264B9B69DB0400D4D3
:10097000FAE0254BDA6BE0231340402B00D1F3E083
:10098000EFF305839A46402300249B4600230093FF
:1009900001941E4B5C469846164F002399465346D9
:1009A0003D687E68A24628001C003100002C1AD049
:1009B00001F0DEFAEFF3108272B643461B68002B9B
:1009C000FBD0BFF35F8F3B68AB422DD0BFF35F8F8F
:1009D00043464946196082F310883D687E682800C6
:1009E0003100002CE4D101F0B9F9E3E71FDD00206C
:1009F00012DD0020B0140020D0000020C000002034
:100A000013DD00200000064000800040300100D0CF
:100A1000FFFFFF7F00000340FFFFFF00001C0420DA
:100A200000200420C80000207B68B342CED1230000
:100A3000160054469A46009A019B1000190080182F
:100A40005941504BDA69012313400343009301914C
:100A500001F084FA0A2200238018594102000B1E7B
:100A600002DA0122484B52423A607B60012C66D187
:100A7000464DA346009B019C2B606C60BFF35F8FCB
:100A80000023434C236086F3108801F067FA804608
:100A90008946EFF3108672B62368002BFCD0BFF3B3
:100AA0005F8F059B1B78002B52D13A4BDA681F2AC7
:100AB0005DD05A691F2A5CD0DA691F2A5FD05B6A51
:100AC0001F2B59D010F068F9FF23FF223249DB00B9
:100AD0000A70324A029194460098019905226344B3
:100AE0005A60FFF7ADFD82460C0006980799FFF7A4
:100AF000A7FD534661405840129013914046494625
:100B0000FFF79EFD80460C0008980999FFF798FDB5
:100B1000434658406140149012A81591FFF7BCFD60
:100B2000149815991E4B9B46129A139B5C462260A3
:100B300063600123059AA060E16013700CE0BFF3CD
:100B40005F8F00234246136086F31088013C24E740
:100B5000114B0293124B9B46BFF35F8F00220C4B4D
:100B60001A6086F31088F4E510F016F908E7002300
:100B70009B465B46DAB2A9E71C3B9B46F9E702239A
:100B80009B46F6E700000640FFFFFF7FC000002005
:100B9000300100D00000034012DD002008000340B7
:100BA000D000002010B5FFF7BFFD10BDF8B5DE4640
:100BB0004E4657464546E0B58B4605000A99180053
:100BC000160010F041FA0A9B6C001F02324B6419A8
:100BD0009C46A4006444636881469F4200D96760D4
:100BE0002B1FDBB29846012B30D9C02380229B01FA
:100BF000E31812011A60294BAD0059599A46002991
:100C00001BD17301E026226853401E4080234246D8
:100C10005B01E3181E60012A30D9802380229B01EA
:100C2000E31812011A6053464A4667605A51F0BCF5
:100C3000BB46B246A946A046F8BD586910F004FA72
:100C4000013043001B18033BFDD2DAE75B46012B62
:100C5000CBD1C02303229B01E3181A60023AA36898
:100C60001A42FCD07301E0262268AD0053401E40BA
:100C700080230A4A5B019246E3181E605A462168A7
:100C8000514003220A401A6001225B469A40A36841
:100C90001A42FCD0C1E7C046008000403C1F002043
:100CA000F0B546464F46D646C0B51F00344B44000B
:100CB0009C462418A4006444636888461600FF2BF1
:100CC00002D880235B006360031FDBB29A46012BCE
:100CD00030D9C02380229B01E31812011A60294BEE
:100CE00085005959994600291BD17301E0262268D5
:100CF00053401E40802352465B01E3181E60012AC8
:100D000030D9802380229B01E31812011A608023CE
:100D10005B0063604B465F51E0BCBA46B146A846F3
:100D2000F0BD586910F090F9013043001B18033BE7
:100D3000FDD2DAE74346012BCBD1C02303229B012E
:100D4000E3181A60023AA3681A42FCD07301E02645
:100D50002268850053401E4080230A4A5B01914669
:100D6000E3181E6042462168514003220A401A607F
:100D7000012342469340A2681342FCD0C1E7C0461B
:100D8000008000403C1F0020014B8000C05870478D
:100D90003C1F0020EFF3108072B6034A1368002B4B
:100DA000FCD0BFF35F8F70472C0100D0BFF35F8F83
:100DB0000022024B1A6080F3108870472C0100D08B
:100DC00070B5EFF3108C72B60D4D2B68002BFCD074
:100DD000BFF35F8F0724CB08C618C05C01230C400B
:100DE000A3401C000440034207D118433070BFF3F6
:100DF0005F8F2C608CF3108870BD1000FFF708FC2B
:100E00002C0100D0F8B54746CE46884680B5EFF3B2
:100E1000108C72B61C4D2C68002CFCD0BFF35F8F79
:100E20009A4222D807210126894602E001329342E4
:100E300018D34D4637001540AF40D4080119045D62
:100E40002742F3D110003C430C70BFF35F8F0022A8
:100E50000D4B1A608CF3108800280EDBC0BCB9461D
:100E6000B046F8BD01204042EFE7BFF35F8F00239B
:100E70002B608CF31088012040424346002BEDD0BC
:100E80000898FFF7C5FBC0462C0100D030B5EFF342
:100E9000108C72B60A4C2368002BFCD0BFF35F8F16
:100EA000072301220B409A40CD08435D93434355ED
:100EB000BFF35F8F002323608CF3108830BDC046E2
:100EC0002C0100D0044A1078431CDBB2172B00D948
:100ED000102313707047C046E011002010B5064B78
:100EE000064C82B00100009318221F232000FFF758
:100EF00089FF02B010BDC0462C5F0110301F0020DA
:100F00000021044B044ABFF35F8F02C39342FAD11E
:100F10007047C046000100D0800100D0094A83001C
:100F20009A1810B514684022544080322240064C72
:100F3000C000A44663441A60044B9C466044416070
:100F400010BDC04604C0014004D001400040014033
:100F5000074B8000C3181B68C90092000A435A401F
:100F60000C231340034A9446604403607047C04614
:100F700004C0014004D001408000002905D0064B88
:100F80009C460223604403607047044B9C46022346
:100F900060440360F8E7C04604E0014004F001400B
:100FA000D0231B061B6830B50500584243412F2053
:100FB0005B4283430E48EC088446072028408000AB
:100FC000814020000B4D3C3063448000A40041511F
:100FD0001B19002A05D080229201944663441960AF
:100FE00030BDC0229201944663441960F8E7C046C0
:100FF0003041014000400140D023F0B5C6461B06F9
:1010000098461B680C4F9B001600FA5804000D0010
:1010100000B5104209D1290014430D203200FC50C4
:1010200000F0B0F880BCB846F0BD0FF0B5FE434606
:101030001B689B00FA58EEE78CDB002010B504001B
:101040000D2000F099F9D0231B061B6802499B0074
:101050005A58A2435A5010BD8CDB00200123D022E5
:101060008340120693629361094A83009A181168BB
:101070004022514080320A400649C0008C466344F9
:101080001A60054B9C460523604443607047C04688
:1010900004C0014004D0014000400140054B064A15
:1010A0001360064A136053609360D3601361536109
:1010B000936170478080808000E400E004E400E0F9
:1010C0001F2318401E3B8340002905D0C021044A3D
:1010D0004900535013607047802201498B50FAE752
:1010E00000E100E001228240034B1B6813405A1EBE
:1010F0009341D8B27047C04600E100E0012383402D
:10110000014A13607047C04600E200E0064B103011
:101110009B688000C358054A00209B1A2F229A42E0
:101120004041C0B27047C04600ED00E0E41100202D
:1011300070B50D00EFF3108672B60F4A1368002BDE
:10114000FCD0BFF35F8F0D4B10309B6884001B59A0
:101150000B4A934203D09D4201D00FF01DFE074B76
:101160009B681D51BFF35F8FBFF35F8F0022024B5F
:101170001A6086F3108870BD240100D000ED00E0F5
:10118000C1010010F0B557464E46DE464546E0B573
:1011900085B0060000911700EFF3108B72B66A4A13
:1011A0001368002BFCD0BFF35F8F0025674B5D57A2
:1011B0009A46002D00DAA9E06B00654C01935B199B
:1011C0009B009846A146C1444B4652469B79103637
:1011D0001370604BB6009B6899590B1B2F2B33D9AA
:1011E0005D4B994200D0ACE0019B42469C465B4B74
:1011F0006544AD0063535A4B0232A218043B9B1A5C
:101200001B05584A5B0D651913436B80564B012132
:10121000AB80FF23AB71009BEF71AB604B460B4380
:1012200019004C4B9B689951BFF35F8FBFF35F8FE1
:101230000022454B1A608BF3108805B0F0BCBB460A
:10124000B246A946A046F0BD01200A008243D379E8
:101250008C46BB4231D84546130044491B1B5B41B9
:101260005943090D3D4B63533D4B02356519043B12
:101270005B1B1B053B4D5B0D2B43AA464D466B800C
:101280000425AC465546E044131F44441B1B1B0574
:101290005B0D1D434B46997100999D8099604946AD
:1012A000DF71334B01431360BBE75800C018800067
:1012B0002018C179B9422FD902000623D356002B3A
:1012C000F3DA02932B4B61460393131D9A460423D2
:1012D0005B429C46E14450464B461B1A1B055B0D86
:1012E0009C46204B95719846634640460343938045
:1012F000019B5A199200039BA418A380029B1C4ACD
:10130000A371009B2260E771A3608AE70FF044FDA0
:10131000002553465D574FE7908802934005131D03
:101320009A46031561469C464046D44463460430C1
:101330002018181AE0230005400D1B0218430390E3
:10134000C5E70FF029FD4FE7240100D018DD00208C
:10135000E411002000ED00E0C101001000A1FFFF3A
:101360001412002000E0FFFF01BDFFFFAAAA000049
:101370000148804701BD0000F0B5DE4657464E46A5
:101380004546E0B50C0083B0EFF3108872B6634AAF
:101390001368002BFCD0BFF35F8F614B61499A68E3
:1013A000030010339F00D55901938D4243D0A542CD
:1013B00054D05D4EAA1B2F2A3DD85C4B9B461B6820
:1013C000994601231A009C4682404B4613401F2237
:1013D00099466346024093409A4680225B465046B7
:1013E0009850BFF35F8FEFF305839B46002B37D0F8
:1013F000019B5B4501D00FF0CFFC01232A009A43EB
:101400009068844208D176E04B005B189B00F3188B
:101410009868844236D01A00062151560029F3DA22
:10142000844254D04B46002B27D0C02251463F4B1C
:101430005200995019603A4B9B68DD51BFF35F8FA2
:10144000BFF35F8F0022354B1A6088F3108803B01A
:10145000F0BCBB46B246A946A046F0BD0D00EAE787
:101460002A0063469A4390688442D5D106201056DC
:10147000130000280ADA0D0031E0802351462B4A80
:10148000D150D8E706201856002821DB4200111859
:10149000890074188B46A1689960E179D971062199
:1014A00061569971002924DBA488F11A640524157A
:1014B0005C44091909051E4C490D214399801318F4
:1014C0001C4A9B001178F31899711070AAE7130059
:1014D0005946002914D1FF3191711749918015495E
:1014E0000A789A71154A9B1B5B415A43120D0A7088
:1014F00098E71149E2E70620105613000028C5DAE4
:101500000F4A1049D21A083A5002400D01439980FF
:101510000D4952080A43DA8084E7C046240100D00E
:1015200000ED00E0C1010010E411002000E100E046
:1015300000E0FFFF18DD002001BDFFFFAAAA0000A8
:101540001E12002000F0FFFF00F8FFFF10B5830817
:10155000040003202040FF24054AC0009446844034
:1015600081409B0063441A68A2430A431A6010BD7D
:1015700000E400E070B501240443EFF30581EFF3CC
:10158000108C72B6214A1368002BFCD0BFF35F8F1A
:101590001F4B05001F4AED1A6D416A43120D1E4D87
:1015A0008900AE6852B27658A6421CD00621595620
:1015B00091421CD012215956914222D01E215956D7
:1015C000914220D02A2159560324914210D0134B26
:1015D00019781A708171BFF35F8F00220B4B1A606C
:1015E0008CF3108870BDAB680D4C5C50EFE70024A5
:1015F0006100091989005B18FF21997109499980D7
:10160000E5E70124F4E70224F2E7C046240100D014
:10161000E4110020AAAA000000ED00E018DD00207F
:10162000C101001001BDFFFF1F2110B5091A0248BA
:10163000FFF72CFC10BDC04623DD002010B5084B81
:10164000084C82B001000093002205232000FFF720
:10165000D9FB002801DB1F23181A02B010BDC046B9
:10166000485F011023DD002070B504000E00150056
:10167000FFF728FC0100200000F006F8A680E580B6
:10168000BFF35F8F70BDC046024B9C46614489002A
:10169000016070474000003470B5114C114DAC42F0
:1016A0000FD2FF262368002B0CD0FFF70BFC0100A4
:1016B0002000FFF7E9FFA680BFF35F8F0834AC423C
:1016C000F0D370BDFFF7FEFB01002000FFF7DCFF49
:1016D0002671BFF35F8F0834AC42E3D3F1E7C04615
:1016E000D8120020E012002010B50400FFF7EAFB3A
:1016F00001002000FFF7C8FFFF232371BFF35F8FB6
:1017000010BDC04610B50400FFF7DCFB010020004F
:10171000FFF7BAFFFF23A380BFF35F8F10BDC04662
:1017200010B504000120FFF7D9FB034BC3189B0041
:101730002360BFF35F8F10BD40000034034B9C4615
:10174000614489000160BFF35F8F7047400000343F
:101750000A4B1968EFF3108072B60A68002AFCD0B1
:10176000BFF35F8F1B68BFF35F8F00221A6080F3A7
:10177000108840BF002000217047C046B0DC002028
:10178000F0B5DE4657464E464546E0B587B0EFF326
:101790000583032201251A40954091008846A946F9
:1017A000B34B03925C58B34B1D60B34B04934B4651
:1017B000B24843630823E55E002D37DAA3881BB2E5
:1017C000002B00DBADE0A379002B00D0EEE0082376
:1017D000E05E002820DB430062691B18DB00D318A1
:1017E0009E68DD68731C00D111E1A44801004144EA
:1017F000826A0B69B71A9B1A9F4215D30123026AAA
:10180000039883401A420FD09C4800F09FFB8D4202
:1018100002DCCCD18642CAD940BF07B0F0BCBB467F
:10182000B246A946A046F0BD0E61EDE762696B00C5
:1018300092465B19DB009A4453469E68DF6800F0CD
:1018400085FB8F42BADC00D103E1002F00DAE8E02B
:101850005246534652691B699346049A934200D1FB
:10186000D9E052460821605E528800045946104370
:101870009847009001910099019A0B0010001343C2
:1018800000D1CEE013000A00B61A9F41002806DB03
:101890007A4800F05BFB009E019F36184F4153468B
:1018A0009E60DF6000229A5E002A00DA86E753001D
:1018B00099186069C900411802938B68C9689B46F2
:1018C000B94200DD7AE702D1B34200D976E70823B6
:1018D0009C46A444059565462281A446029B2C00A3
:1018E00006E053009918C90041188D68C968AB46D5
:1018F0009B18DB00C318B94206DC00D1B3E01C0022
:101900000023E25E002AECDA230064469C4653463C
:101910001A806346059D1D80A3881BB2002B00DA48
:1019200051E72269EFF3108172B61368002BFCD0E7
:10193000BFF35F8F0123A7885B42A3803FB2236977
:10194000BFF35F8F00221A6081F31088002F00DA46
:1019500039E72300083322009A4666697B00DB19C9
:10196000DB00F318996850468C460824115FDD6847
:10197000002910DB029306E0AB4244D00023E15E75
:101980002000002906DB4C006418E4003419E368E9
:10199000AB42F1DD029B078000201F5E1980002F03
:1019A000DCDA1400A379002B00D110E70023A37127
:1019B00026000823E15E08364B1C00D12CE7080006
:1019C000A246656902E03E004B1C1AD04B005B1832
:1019D000DB00EF180A008C46E95E7B881BB2002B07
:1019E000F1DA01235B42DC17BB60FC60824205D068
:1019F000534631801B893B8053461A8160464B1CFD
:101A0000E4D15446E5E6A3686345B7D9C2E76B1C49
:101A100000D0EAE6F8E65B4658461B69984700287E
:101A20001BD153461B8822692381EFF3108372B6C2
:101A300011680029FCD0BFF35F8F514662880A808D
:101A400022696580BFF35F8F0021116083F31088E6
:101A5000B4E6864200D8F8E6B0E65B461A685B68F2
:101A60000092019307E7B34500D848E74CE7C0462A
:101A7000C0CB00203C70054081170010004005409D
:101A800070B52E4C2569002D04D00A212C48FFF793
:101A9000FBFD70BD2B4E0321300000F04DFAE660D7
:101AA000FFF710FA284B03229C46D02322701B0616
:101AB0001B6801216370254B6044A3600F238000E5
:101AC00020610220638063694942A180198002314C
:101AD000198647311D83585218315A5275325C3974
:101AE00099521832013199521832013199521832F3
:101AF00001319952083518329D52023118329952EB
:101B0000183201319952183201319952183201318B
:101B100099521832013199521832013199520C4BB5
:101B20000C49DC6001303562FFF702FB0121032024
:101B3000FFF7C6FA084B1D60A7E7C0462C1200202D
:101B4000B0DC00200040054040000034FFFF1000E2
:101B5000C0CB002081170010386005400048704756
:101B60002C120020F8B51F0008AB1B7804001600EB
:101B7000002B08D100F0F2F932003B00121A8B4121
:101B8000002B00DA52E02269EFF3108072B613687E
:101B9000002BFCD0BFF35F8F0223E15E63694A0034
:101BA0005218D2009B182269002936DB1D886580F7
:101BB000BFF35F8F0025156080F31088069A9E6042
:101BC000DF601A61079A5A615A8801325204520C36
:101BD000101C002A1FD082B25880080410432669C6
:101BE000EFF3108772B63268002AFCD0BFF35F8F24
:101BF000A2881A80A1802369BFF35F8F00221A6038
:101C000087F310880A4923788C4601329A40E368AA
:101C100063441A60F8BD0120DDE7BFF35F8F002346
:101C2000136080F3108801204042F3E70020F1E7C1
:101C30003C20000070B501000469EFF3108C72B60F
:101C400020680028FCD0BFF35F8F02200D5E4C6936
:101C500068004019C00024180869002D36DB26886A
:101C60004E80BFF35F8F002606608CF31088E36020
:101C700063880498013320615B0405985B0CA260C3
:101C800060611A1C002B1FD093B228046280184395
:101C90000A69EFF3108C72B61368002BFCD0BFF307
:101CA0005F8F8B8823808D800B69BFF35F8F00224D
:101CB0001A608CF310880B7801329A40CB6808497F
:101CC0008C4663441A6070BD0122DDE7BFF35F8F6D
:101CD000002303608CF3108801204042F3E7C046E4
:101CE0003C20000010B543890A1493421ADD5300CA
:101CF0009B184269DB00D3180469EFF3108C72B6AD
:101D00002268002AFCD0BFF35F8F5A88090494B27E
:101D1000090C8A4208D00369BFF35F8F00221A6062
:101D20008CF31088002010BD8022120214435C80C6
:101D3000012302698371BFF35F8F002111608CF36F
:101D40001088044902788C469340C268012062449E
:101D50001360E8E73C20000040787047F0B50600CB
:101D60000F0006246442E517C646A4197D4100B55C
:101D700082B08D4214D811D000F0F0F822002B0070
:101D8000121A8B41002B15DC002B44D03000390097
:101D900000F0EEF802B080BCB846F0BD8442EBD94A
:101DA0000024002500F0DAF822002B00121A8B41E3
:101DB000002BE9DD00F0D2F822002B00121A8B4133
:101DC000002B0ADB00230193144B220000931448DC
:101DD0002B00FFF72FFF0130D8D0A04629000024A8
:101DE000104A1148536A994204D8956A4545CDD2A4
:101DF0009942CBD10568EFF3108C72B62B68002B9B
:101E0000FCD0BFF35F8F0368BFF35F8F1C608CF360
:101E1000108820BFE6E7002AB8D0CBE751170010A2
:101E20002C12002000400540B0DC0020F0B55746E1
:101E30004E46DE464546E0B506000F0085B0EFF39E
:101E4000058399468B46002B12D0384900204B6AF7
:101E5000BB4206D38A6ADB1B591E8B41B24240410A
:101E6000184305B0F0BCBB46B246A946A046F0BD3B
:101E70002F4B9A46DB68984653461B78404603939F
:101E800000F064F84246039B040004339B009B5817
:101E90000D001B1A39003000001BA941894510DCD8
:101EA0000DD020BF214A0020536A5B45D9D3926AE6
:101EB000DB1B591E8B41B24240411843D1E783429C
:101EC000EFD900F04BF832003B00121A8B41002B87
:101ED0001ADB00230193174B3200009350463B005E
:101EE000FFF7A8FE011E0FDD104B5A6A5A451BD39F
:101EF0009B6AB34216D35046FFF7F4FE0B4A00200C
:101F0000536A5B45ADD3D2E7084A0020536A5B456C
:101F1000A7D30020926ADB1BB24240415A1E934174
:101F200018439EE75A45E6D120BFE4E7004005404C
:101F30002C1200205117001010B5024A0248FEF77B
:101F40003FFF10BD645F0110341F00200300416A91
:101F50000A00986A596A8A42FAD17047034B596A53
:101F60000A00986A596A9142FAD1704700400540C8
:101F7000064A536A9942FCD807D1044B02E05A6AD8
:101F8000914202D19A6A9042F9D8704700400540C8
:101F9000F8B5040021481E0017000D000FF054F89A
:101FA000010038000FF050F8069B36041B031E4357
:101FB0002368002B20DB1A4B1A49E3185A1E934161
:101FC0008022920194465B421B0B174A1B03634419
:101FD0001360164A13601F000A689743FBD1144B25
:101FE0002560E2182123A06013602368002BFCDA2F
:101FF0000823E6601360F8BD3F2322681340AB421C
:10200000D9D1A3681B051B0D8342D4D1EE22E3680E
:10201000D2021340B342CED1EDE7C046001BB70059
:102020000040FDBF08C0004000E0004000F000405C
:102030000430000010B580241C4BE4051C6000280F
:102040001AD001231A4C18431A4BDC611A4C444035
:102050001C62596298628021144BC90519601748A7
:1020600017490860E021C9041960002A07D18022BD
:10207000144B12061A6010BD0E4BD861EBE75301EA
:102080009B1A9B009A18802312015B049A4209D282
:1020900013000D490B60074B5A608022094BD20593
:1020A0001A60E8E7094B1A00F3E7C04600B00540A4
:1020B000D3C007B0008005402D3FF84FFCFF010062
:1020C0000820014000A0054028320020FFFFFF004B
:1020D0008023024A9B000B43D36270470080054077
:1020E000002310B50100988A1B8B984710BDC0468D
:1020F000162310B50100188802331B88984710BDBD
:10210000F8B54746CE4680B50F1E18D01423994621
:10211000043304000025012698464B4618884346A0
:1021200021681B88984701C4431E98410135064029
:10213000AF42F2D13000C0BCB946B046F8BD01266E
:10214000F8E7C046002370B504000D00988A0549E1
:102150001B8B984703000020002C01DB0130A040BE
:102160002900984755420000AA23064A1B01136024
:102170008D235B00D3600449044B19605368002B26
:10218000FCDA70470040024000B0FA0000600240F4
:1021900010B5024800F0E0F810BDC046A0DB0020FA
:1021A00010B5082201490FF025FB10BDA0DB00206F
:1021B00030B54B1E012900D1A7E0664A11780D0900
:1021C0002C0030349F2900D9A2E00470012B00D1EB
:1021D000BEE00F21147821400C003034092900D9C9
:1021E00098E04470022B00D1B2E054782509290010
:1021F00030319F2C00D990E08170032B00D1A7E0F3
:102200000F2121400C003034092900D987E0C47027
:10221000042B00D19CE094782509290030319F2CB3
:1022200000D97FE00171052B00D191E00F21214001
:102230000C003034092900D976E04471062B00D116
:1022400086E0D4782509290030319F2C00D96EE032
:102250008171072B00D17BE00F2121400C0030342D
:10226000092966D8C471082B00D171E014792509B9
:10227000290030319F2C5FD80172092B68D00F21C3
:1022800021400C003034092958D844720A2B5FD001
:1022900054792509290030319F2C52D881720B2B9B
:1022A00056D00F2121400C00303409294BD8C4727C
:1022B0000C2B4DD094792509290030319F2C00D961
:1022C000073101730D2B43D00F2121400C00303416
:1022D000092901D937310C0044730E2B38D0D1793C
:1022E0000C09220030329F2900D9073282730F2B4C
:1022F0002ED00F220A4011003731092A01D830327E
:102300001100C173102B23D010300023037030BD97
:1023100007345AE737310C0063E707316CE7373190
:102320000C0074E707317DE737310C0085E7073192
:102330008EE737310C0095E707319DE737310C0008
:10234000A3E70731AAE737310C00C4720C2BB1D1D7
:10235000C018DAE7A0DB002010B588B004000D2219
:10236000002168460FF040FA0D22002104A80FF06A
:102370003BFA4B236A466846137004A90D2213F0FA
:102380000FFD15210822200069440FF033FA08B030
:1023900010BDC04610B501F073FC00F05DFB00F00D
:1023A00031FD00F0DDFD05F00BFD01F0F7FC00F064
:1023B00085F905F077FC10BD40BA80B27047C04681
:1023C00000BA7047F0B5C646584D04002B688846E1
:1023D00000B5002B03D02A7A824200D179E0544E16
:1023E0002701EB68002B02D02A7DA24267D0AB699F
:1023F000002B03D02022AA5CA24256D06B6A002B8D
:1024000003D02C22AA5CA24229D03B191B01F3184D
:10241000DB7B002C32D0B27A022A65D0012C32D07C
:102420008D225200B25C022A62D0022C2FD0414A87
:10243000B25C022A00D16EE0032B0DD83E4D9B000A
:10244000585906F027F800223F193F01F719FB7B86
:102450009B005A510423FB7380BCB846F0BD381969
:10246000000110304146AA6A3018984700236B6279
:102470003B191B01F318DB7B002CCCD18D225200C1
:10248000B25C022A4CD02B4AB25C022A3ED02B4AC4
:10249000B25C022AD0D12A4AB25C9A42CCD1042240
:1024A0003B191B01F318DA73D6E738190001103015
:1024B0004146EA69301898470023AB619EE7381916
:1024C0000001103041462A69301898470023EB601C
:1024D0008DE707013818164E000110306A68301871
:1024E000984700232B607CE7F27B9A4296D1D6E78F
:1024F0002022FF32B25C9A42D1D0022CC7D00D4AC2
:10250000B25C022A07D0032CC1D195E70D4AB25C18
:102510009A42BCD1C3E70B4AB25C9A42F3D1BEE700
:102520002022FF32B25C9A42E9D1B8E77429002038
:10253000AC2900202A020000642900203A03000090
:102540003F0300002F020000564BF0B54546DE4623
:10255000574698464E460301E0B59B461D18434634
:102560002D015C19E37A070089B0012B00D996E0B0
:102570004D4A9B00D6580192002E00D185E01035BF
:102580004544280013F0B2FAA022123081B2920022
:10259000362000F00DFF8146002869D005AE0C22E0
:1025A000002130000FF020F92089FFF705FF0123FB
:1025B0003080B3703100FF330C224846B38001F005
:1025C000CBF93A4B0C269A464346013D02970393BA
:1025D0006A786F1C3B0000242E2A07D15AE05A78F3
:1025E0000134E4B2591C2E2A49D00B00002AF6D13E
:1025F000DA1B92B290461D002200B218524534DC1C
:1026000022003100484601F05BFA731C9BB2A4190A
:1026100042463900484601F0DBF9A4B22B78661C2B
:10262000B6B2002BD4D1039B002231004846984615
:10263000029F01F045FA1E4B02340422049304A9C0
:10264000A3B2484601F0C4F93B0001995B448C46B3
:102650001B014344DA7ADB7B16499B0092005858F1
:1026600062443523494605F0A5FE484600F0F8FFD0
:1026700009B0F0BCBB46B246A946A046F0BD5B1B04
:102680009BB2984622000D00B7E70021FFF79AFEA3
:10269000A672EDE700233D0000229846ADE706480C
:1026A000FDF7B6FFAC290020A4290020FEFF0000A2
:1026B0000001000164290020885F01107047C046B6
:1026C000012800D97047054B8000002902D00A6814
:1026D000C250F7E7024A1268C250F3E7A42900206B
:1026E000E47C0110F8B54746CE46454E454B80B5D3
:1026F0008D273400002598467F00A37A022B32D024
:1027000029D8002B1DD0404B9946FEF74BFAB37ADF
:1027100080B2022B3FD0F35D022B42D04346F35CE4
:10272000022B47D04B46F35C022B4CD002230122F4
:10273000A37200232081E372280022736373FFF7E2
:1027400003FF01351134EDB2FF34042DD5D1C0BCE7
:10275000B946B046F8BD032B4ED12368002B13D1E8
:102760000023A372EDE7237B013BDBB22373002B35
:10277000E7D1637B0133DBB26373042B29D023736E
:102780002800FFF7E1FEDCE7013B2360002BD8D1F6
:102790000023A372D5E733898342B6D0F35D022BC1
:1027A000BCD11733FF33F35A8342AED04346F35CB8
:1027B000022BB7D18A239B00F35A8342A5D04B4604
:1027C000F35C022BB2D1CE239B00F35A8342ADD1EE
:1027D0009BE7E37A002B08D10C4A5268002A04D008
:1027E00001226373E2722273CAE700212800FFF717
:1027F000E9FD0023A372A4E70548FDF709FFC046E1
:10280000AC2900202A0200003A030000A42900207D
:10281000A05F01100123F0B51E00002506401842FC
:1028200005D0002951DD057801392D020130032240
:102830001300034010424FD1072963DD08225242A2
:1028400094468C4467460F329743020004000832D6
:10285000BF1822689A189A429B415B42D21863685B
:102860000834D3189342924152429B18BC42F0D193
:10287000CA086146013AD2008018891A1A04083041
:10288000120C1B0C9B18012910DD02889B180329D0
:1028900005DD42889B18052901DD82889B184A08BE
:1028A000013A520002398018891A0230012919D0E0
:1028B000EB181A0C1B041B0CD318180C1B041B0C54
:1028C000C018002E02D180B2F0BD00200306000423
:1028D0001B0C000E1843F6E7012911DD03880239AD
:1028E0000230A9E7FF2102788D431543ED182B0C28
:1028F0002D042D0C5B19180C1B041B0CC018E0E7F1
:102900000023D3E71A00BCE7F8B557464E46DE462B
:102910004546E0B591460A9A8A4611681B680A0442
:10292000120C090C52181904090C52181B0C9B1894
:102930001A0C1B041B0CD3181F0C1B041B0C0400CB
:10294000FF18002825D000239B46FF330126984618
:10295000658960682900FFF75DFFC019070C000456
:10296000000C3F182E4209D05B46414673403A06A0
:102970009B463B0A120C0B401A4317002468002C9C
:10298000E6D15B46002B04D03A063F04120C3F0E02
:1029900017435046FFF710FD04004846FFF70CFDB3
:1029A0002318DB191A0C1B041B0CD318180C1B045E
:1029B0001B0CC018C04380B2F0BCBB46B246A9464F
:1029C000A046F8BD10B582B0049C0094FFF79CFFB0
:1029D00002B010BD10B5FFF71DFFC04380B210BD9F
:1029E000F8B5CE464746040080B500282FD0002316
:1029F0009946FF33002701269846658960682900BB
:102A0000FFF708FFC019070C0004000C3F182E4206
:102A100009D04B46414673403A0699463B0A120C90
:102A20000B401A4317002468002CE6D14B46002BBC
:102A30000AD038063B04000C1B0E1843C04380B27A
:102A4000C0BCB946B046F8BDF84380B2F8E70148CB
:102A5000F6E7C046FFFF00000322094BFA2193432B
:102A6000084A0901136000221A71074A58181060B9
:102A7000012219600271054A5A50054A13607047D5
:102A8000DBCB0020D0CB0020D4CB0020A00FA00FA8
:102A900024320020F0B5D6464F464646C0B5002841
:102AA0005ED0830700D07FE00300414A083B1268F4
:102AB0009A4200D972E03F490C300C68844200D23F
:102AC0006CE01979002900D16BE0FA201988000127
:102AD00081420CD85D88AA46854208D8981A80B2EF
:102AE00080465619A84205D03088404502D0324869
:102AF000FDF78EFD5018844237D045884545F6D104
:102B000000251D712D4DAC462D689D4202D96546AC
:102B10002B601D009C423ED9834212D00779002FC2
:102B20000FD184420DD0A8422FD00188FA201980FD
:102B30000001814205D0444650184480588882469E
:102B40001618B3420CD03079002809D1AB4219D005
:102B5000FA2331801B01994202D053465218538008
:102B6000E0BCBA46B146A846F0BD00251D71134D24
:102B7000AC462D68AB420CD265462B609C420AD90C
:102B80001D00CBE763461E60E2E761461D000B6057
:102B9000CBE79C42C2D80A48FDF73AFD0948FDF749
:102BA00037FD0948FDF734FD0848FDF731FDC04603
:102BB000D0CB0020D4CB002028600110243200208C
:102BC0005C600110E45F011000600110C05F011043
:102BD000F8B5CE464746384ACB1C80B513400B2B80
:102BE0003FD9FA22120193423ED899423CD8334A47
:102BF0001668864256D8324A1268824252D9040078
:102C0000083C2588A11B2A0089B2083A521A92B2C0
:102C10009A424AD321D07719BC463F79002F25D15B
:102C2000FA221201954243D062461288254D914600
:102C30000A0008329B182F689BB2F21867452FD004
:102C4000002515714D4651801580FA212380128888
:102C500009018A4201D0B2185380C0BCB946B046BF
:102C6000F8BD0C239942C2D90020F6E71F001437A3
:102C7000BFB2BA42F1D30A0008329B18FA229BB2C3
:102C800098461201954213D00E4FF2183B689342BA
:102C900000D93A6000274346177115805180D4E768
:102CA0002A60CDE70848FDF7B3FC0848FDF7B0FC03
:102CB0000748FDF7ADFCC046FCFF0000D0CB00206C
:102CC000D4CB0020243200207860011090600110E5
:102CD000B0600110F8B5DE4657464E464546E0B5B1
:102CE00000282ED0404BC61C1E40B3460B2E2FD9B9
:102CF000FA231B019E4224D8584522D83B4BFA2781
:102D00009A461B6859469846394B3F011868434616
:102D10001B1A9AB21B041B0C7F1A9F4211D908215F
:102D200049428946C41894462579C25A19001300AD
:102D3000002D04D14E46711A891859450BD297427D
:102D4000F0D80020F0BCBB46B246A946A046F8BD6C
:102D50000C239B46D0E75B461433994211D20123E2
:102D60005E4623710836234B1A68A04520D0A61969
:102D7000B24233D320000830A407E3D01E48FDF749
:102D800047FC5E466346FA2708369B199BB23F0113
:102D9000BB4226D0C1180A8062464A8001220D71CA
:102DA000238022710A88BA42DDD082185380DAE784
:102DB00043461B79002B08D1D9E743461B88984628
:102DC000804443461B79002B04D09045F5D15346EF
:102DD0001A60CCE7534641461960C8E70748FDF73B
:102DE00017FC0748FDF714FCFCFF0000243200200C
:102DF000D0CB0020D4CB0020F4600110C4600110BF
:102E0000B060011024230022F0B54746CE4690461C
:102E10009946033204249446124E80B5124B134F48
:102E2000B144414632683960614603338B43002C1C
:102E30000BD015880021002200E003000132196048
:102E400058191900A242F8DB3B600436B14504D0A2
:102E50003268976853685488E3E7C0BCB946B04607
:102E6000F0BDC046F079011064C300208CCB002077
:102E700010B5082812D80C4B8000C458FDF7E0FAB2
:102E8000A3681C68002C07D022681A60A30707D12A
:102E9000FDF7D8FA200010BDFDF7D4FA0024F9E7B9
:102EA0000248FDF7B5FBC046F0790110386101100A
:102EB00070B50C0008280ED800290CD0084B8000F3
:102EC000C5588B0708D1FDF7BBFAAB681A682260BA
:102ED0001C60FDF7B7FA70BD0248FDF799FBC046CC
:102EE000F07901105C6101100C2040427047C0462F
:102EF00070B505000E00140082B0002A2AD0436885
:102F00000A689A4201D102B070BD2360200001A975
:102F1000019201F0C3FE200001A905F0E7FA01A922
:102F2000200000F08DFE392332686A60E95C343B92
:102F30000B40052B05D0EB69002BE4D02800984707
:102F4000E1E7002AF7D00907F5D52800291D07F089
:102F5000FBFBF0E70148FDF75BFBC0467C6101101D
:102F60007047C046F0B54746CE4680B504000F0016
:102F700090461E0083B000286AD00B9B002B67D0C0
:102F8000002900D17BE04346002B00D17CE0002EDD
:102F900000D17EE04A4B00256361002239232000E6
:102FA0006560A560E56025860021E2542830042292
:102FB0000EF01AFC0A9BE5616362424B25621A78A7
:102FC00099463C23E2540C9B23613B68002B45D07F
:102FD00043461B68002B2FD0A3603368002B2ED1F3
:102FE0003900200001AAFFF783FF20000B9B9847C0
:102FF00000282DD1344B98461E683C23E55CFF2DFC
:1030000001D10025E0543C273C20002E48D08022EE
:103010003300520002E01B68002B41D09C424CD090
:10302000013A002A0DD0D95DA942F4D10135EDB2A3
:10303000FF2D09D02554EAE73368002BD0D0E36098
:10304000CEE72248FDF7E4FA002300252354DEE70B
:10305000002003B0C0BCB946B046F0BD390001AA9B
:103060002000FFF745FF4346A1681B68E2689942CC
:1030700011D0A36033689A42B7D0E360B5E7434606
:10308000134F002B00D082E7114B9846002E00D042
:1030900080E70F4E7EE733689A42A6D0E360A4E74C
:1030A000FE2D08D00135EDB24B461D70434626601B
:1030B00020001C60CDE70025F6E70648FDF7A8FADA
:1030C000E92E00101BDD0020ACCB0020A061011018
:1030D000E47C01108C610110F0B504000D001700B4
:1030E0001E0083B0002922D0002F23D0002E24D030
:1030F0002B680022002B15D03B68A1688B4200D0C2
:10310000A3603368E1688B4203D1002A04D003B086
:10311000F0BDE360002AFAD16A4629002000FFF7DB
:10312000E7FEF4E76268002A09D10122E4E7174DBF
:10313000002FDBD1154F002EDAD1144ED8E76846A8
:1031400001A90193009201F0A9FD684601A905F0CB
:10315000CDF901A9684600F073FD39232A68626041
:10316000E15C343B0B40052B06D0E369002BDCD03F
:10317000200098470122BFE7002AF6D00907F4D5BE
:103180002000211D07F0E0FAEFE7C046E47C0110C3
:1031900070B5041E16D04368002B17D139220121C7
:1031A000A35C194224D11D4B1A68A2422ED01C4A9E
:1031B0001368A34204D126E01A68A24203D0130088
:1031C000002BF9D170BD22681A60FBE7051D0021B4
:1031D000280001F063FD0021280005F087F9002197
:1031E000280000F02DFD39220121A35C1942DAD01C
:1031F00018008843A0541B070BD4E369002BD2D0DE
:1032000020009847CFE723681360DBE700221A60AD
:10321000CDE7200006F00AFFEFE7C046A8CB00206C
:10322000ACCB0020014B18607047C046A8CB0020F3
:1032300070B5041E10D03925435DDA070CD4012285
:103240001343DBB24355C269002A01D09047635D46
:1032500005221A40052A00D070BD6268002AFBD002
:103260001B07F9D52000211D07F06EFAF4E7C046D0
:1032700070B5041E03D03925435D5A0700D570BDD3
:1032800004221343435506F097F80523625D13406B
:10329000052B05D0236A002BF1D020009847EEE7DC
:1032A0006368002BF6D01207F4D52000211D07F02B
:1032B0004BFAEFE710B500280AD039220421835CCD
:1032C000194205D08B438354036A002B00D09847E2
:1032D00010BDC046021E0ED0084B1868002809D049
:1032E0003C2102E00068002804D0435C0133DBB2DB
:1032F0009342F7D170470020FCE7C046ACCB0020DA
:10330000F8B505000026002826D00F270BE0012B7A
:1033100024D0002B2AD12800FFF7BCFB0136F6B2DF
:10332000002C19D02500FDF78BF8AC7B002C1AD0AF
:10333000013CE4B2AC73FDF785F8002C0CD12B7B7B
:103340002C683B40022BE2D1290008200136FFF710
:10335000AFFDF6B2002CE5D13000F8BD2900072002
:10336000FFF7A6FDDAE70348FDF752F90248FDF73B
:103370004FF9C046D0610110E861011010B5FDF7AA
:103380005FF80022084B1A70FDF75CF8074B1868CD
:10339000002803D107E0C068002804D0436F002B49
:1033A000F9D001F0C5FC10BD1DDD0020BCDC002003
:1033B000F0B5C1234F464646D6468046C0B50D00FF
:1033C000170004005B009A4242D000220C04914690
:1033D0000C439F4208D83D00433BFF3B9D43012DDA
:1033E00024D03B48FDF714F9A0239B009F42F8D15D
:1033F0000300032703330335BB43BD435B199BB273
:103400001800103080B2AB4260D385425ED8FFF71F
:1034100061FC061E16D04B4603604346C3181333A7
:10342000BB4343602B4B8460C3600BE00720FFF776
:103430001FFD061E06D04B46846003604360077381
:103440004373C5813000E0BCBA46B146A846F0BD22
:1034500000239846204B00269A46002303279946CE
:1034600007E04246ED1AADB21060002DEAD080466A
:1034700000240820FFF7FCFC00281BD05246E31C68
:10348000BB43D31A1A1C9BB2AB4200D92A1C494633
:10349000041993B213344281104ABC430160446062
:1034A0000581C260002EDCD1ED1AADB20600002D00
:1034B000DDD1C7E7FCF7C4FF0122094B1A70FCF706
:1034C000C1FF002E02D03000FFF71AFF0026B9E737
:1034D000FC61011080000100EC0500008200010089
:1034E0001DDD002070B5041E33D002898A421BD92D
:1034F0008A1A07E0C91A238989B29B182381246894
:10350000002C20D063898B42F4D3227B0D040D4321
:10351000120701D18B4208D12068A560002801D094
:10352000FFF7EEFE0023236070BD636820001B1BC5
:10353000C91889B2FFF74CFB002807D08442EBD0B2
:103540000548FDF765F80548FDF762F80448FDF702
:103550005FF80448FDF75CF8646201103062011006
:103560004862011018620110030070B500281FD0D6
:103570008022520291420CD2002917D002898CB2CB
:10358000A21892B2944204D8057B01207F2D02D864
:1035900070BD0120FCE75D68691A1D001035A94265
:1035A000F6D3596059891A8164185C810020EFE7CD
:1035B0000148FDF72DF8C0468062011010B50028C3
:1035C00015D080235B0299420FD200290BD043898A
:1035D0008AB29A4209D89B1A4468438103896118C8
:1035E0009B1A41600381002010BD0120FCE70148C7
:1035F000FDF70EF88062011010B5002915DB0028D8
:1036000029D000290FD003898AB2D3189BB29A42DD
:103610001FD84468611A047B7F2C16D84160418909
:10362000038152184281002010BD4942002812D067
:1036300043898AB29A420CD89B1A44684381038911
:1036400061189B1A41600381EDE704001034A14228
:10365000E4D20120E8E70148FCF7DAFF80620110BC
:1036600010B5002802D0FFF74BFE10BD0148FCF753
:10367000CFFFC0468062011003000020002B04D061
:103680001B68013080B2002BFAD1704710B5041EC0
:1036900009D0FCF7D5FEA37B0133A373FCF7D2FE60
:1036A000A37B002B00D010BD0148FCF7B1FFC04642
:1036B0008C62011010B5002818D0002916D088425D
:1036C0001AD00268002A01D111E01A0003890C897E
:1036D0001B19038113681000002BF6D11089538940
:1036E000834206D1088911601B18138110BD0200A6
:1036F000F4E70348FCF78CFF0248FCF789FFC0465B
:10370000BC620110A062011010B50C00002821D08D
:1037100000291ED0884220D00368002B07D00289E0
:1037200021895218028118001B68002BF7D10289E9
:103730004389934217D1228904609B180381FCF7C7
:103740007FFEA37B0133A373FCF77CFEA37B002BDE
:1037500006D010BD0029FCD0F1E70448FCF758FF63
:103760000348FCF755FF0348FCF752FFA062011025
:103770008C620110BC620110F8B54746CE46804607
:1037800080B591460F001E00002900D192E00B8900
:10379000934200D28EE0002800D18BE04B46028994
:1037A000F3189A4200DA85E0002544894B890CE041
:1037B000B4423AD03A899A4230D042461289A24263
:1037C00043D04A46002A00D172E05B1BA41B9C42F6
:1037D00000D91C004C4500D94C46434679685868CE
:1037E0002200801949190EF005F84B4636192D199B
:1037F0001C1BA3B2994643465C892200B4425CD3A9
:103800007B89AB425CD3D3D13F68002F22D0B44236
:103810000AD07B893A8900259A42CED13A68002A9B
:10382000CBD00620404225E0002543461B68984641
:10383000002B23D07B893A8993422ED0424654896B
:10384000424612890026A242BBD142461268002A93
:10385000B7D0E6E74B46002B2CD1B44221D04346EB
:103860001B89934224D143461868431E984105237F
:1038700040429843C0BCB946B046F8BD4B46002B09
:1038800018D13A897B8900209A42F3D13868431EC7
:103890009841052340429843ECE73A68002ACDD08E
:1038A000BFE743461B689846002B01D05A89D6E7EC
:1038B0000020DFE710204042DCE70348FCF7A8FEC9
:1038C0000248FCF7A5FEC046EC620110046301103B
:1038D00010B5002904D000230A89FFF74DFF10BD61
:1038E00010204042FBE7C046F0B5C64605008846BA
:1038F000170000B500280DD000290BD0002F09D0EB
:103900006C89002B0BD0A34209D32D681B1B9BB2E3
:10391000002DF5D10026300080BCB846F0BD002651
:1039200003E0002DF7D000236C89E41A221CA4B216
:10393000BC4200D93A1C94B2424669683F1B9019B8
:10394000C9182200A619BFB20DF054FFB6B22D68F7
:10395000002FE6D1DFE7C046F8B5CE464746050062
:103960008846914680B5002824D0002922D00389BA
:1039700093421CD316000027002A02D112E0002D2A
:103980001BD06C89B44200D9340043466868D91909
:1039900022000DF02FFF361B2D683F19002EEED1AF
:1039A000B9450DD10020C0BCB946B046F8BD0120D4
:1039B0004042F8E710204042F5E70348FCF728FEB4
:1039C0000248FCF725FEC046206301103863011051
:1039D000F0B5D6464F46464605008A46C0B5002893
:1039E00005D144E02D68DB1B9BB2002D3FD06F89D1
:1039F0009F42F7D9298998188146814237DB686848
:103A0000C018FB1A9A422EDD9BB21A005146984606
:103A10000DF0F0FE4B46DF1BBBB29946002B1CD0CD
:103A20002F68002F29D03B894B4520D34E460024D8
:103A300001E0002F1ED07D89B54200D935004346F4
:103A4000191978682A0051440DF0D4FE761B3F689E
:103A50006419002EEDD1A14512D10020E0BCBA4678
:103A6000B146A846F0BD51460DF0C4FEF5E7012071
:103A70004042F3E70448FCF7CBFD10204042EDE75D
:103A80000248FCF7C5FDC0462063011038630110F1
:103A90000B0070B5150011891A00FFF789FC041E90
:103AA00006D0002329002A89FFF766FE002801D1ED
:103AB000200070BD0148FCF7ABFDC046506301100B
:103AC00005E043898B4205D8C91A006889B20028ED
:103AD000F7D1704743685A54FBE7C046F0B5DE465D
:103AE000454657464E468046E0B5514F83B039684B
:103AF000786908F04FF843465A684E4B557A1C686F
:103B00009B46002C00D18EE0002843D13C230026A8
:103B10009946844604E0E3682600002B32D01C005E
:103B2000237CAB42F7D1217A002906D048467B6836
:103B30001B5C0133DBB29942EDD12368002B02D02C
:103B400079698B42E7D10121637C194203D0616816
:103B50003B699942DFD163699A46002BDBD0019221
:103B600021004246A069344BD047002850D143463B
:103B70005A68019B934258D102239C46E368260071
:103B8000002BCCD1604603B0F0BCBB46B246A94680
:103B9000A046F0BD0020012300269A46019004E0D3
:103BA000E3682600002B31D01C00237CAB42F7D108
:103BB000217A002908D07B689C463C236046C35C80
:103BC0000133DBB29942EBD12368002BE8D1514697
:103BD000637C194203D061683B699942E0D1636913
:103BE0009946002BDCD0019221004246A069124B7D
:103BF000C84700280CD143465A68019B9A4214D109
:103C000002230193E3682600002BCDD10198BAE787
:103C1000002E06D0E368F3605B461B68E3605B46FA
:103C20001C600120AFE70020ADE70448FCF7F0FC82
:103C30000832002094DB0020183200206463011059
:103C400010B5002811D00268002A0ED000290CD02F
:103C50000B68002B09D0094B1B68002B05D01C6892
:103C6000944203D0DB68002BF9D110BD0A681A60BA
:103C7000DB68002BF9D00268F1E7C04694DB002036
:103C80007047C04610B5041E20D0037D042B03D01E
:103C9000072B0AD0032B11D1200002F0FDFF0523D2
:103CA000002807D0431C0BD010BD02F0F5FF002800
:103CB000F8D109232000237503F062FB0020F3E70D
:103CC0000822638B002013436383EDE70148FCF770
:103CD0009FFCC046B063011070B50600806F0028DD
:103CE00003D0FFF7BDFC0023B367746F002C18D01E
:103CF0006068256800280CD0FFF7B2FC2100042082
:103D0000FFF7D6F8002D0AD02C006068256800283F
:103D1000F2D121000420FFF7CBF8002DF4D10023CD
:103D200073670123F46E5B423386002C16D0606803
:103D3000256800280CD0FFF793FC21000420FFF732
:103D4000B7F8002D0AD02C00606825680028F2D151
:103D500021000420FFF7ACF8002DF4D1346F002CC3
:103D600016D06068256800280CD0FFF779FC210088
:103D70000420FFF79DF8002D0AD02C00606825680C
:103D80000028F2D121000420FFF792F8002DF4D191
:103D900000236822F3663367B35270BD10B5FCF799
:103DA00001FF044A80049446034B800C6044188051
:103DB00010BDC04600C0FFFF4812002010B5037DB3
:103DC0000100012B03D00220FFF772F810BD01485B
:103DD000FCF71EFCBC630110F8B5031E1BD0048D5C
:103DE000C16A466A5D8E0F4F601A80192A1CBD4257
:103DF0000CD892B2821A07D5891B09D480225202AC
:103E000091420BD200208CB25C85F8BD3A1CF0E7E1
:103E100000240020F8E70448FCF7FAFB0348FCF70D
:103E2000F7FBC046D0160000D0630110F463011008
:103E3000F8B500281DD0037D012B34D0048D1D4A18
:103E400061188BB293421BD91300466A458E1A4FF4
:103E5000C46A0385B218291CBD420BD889B209195E
:103E6000511A11D5A41B1BD480235B029C421DD286
:103E70004485F8BD391C89B20919511AF2D403E0FE
:103E80009C42E1D81A00E0E743850C4B121B9A4292
:103E9000EFD90222438B1343438303F071FAE8E71F
:103EA00000234385E5E70648FCF7B2FB0548FCF72D
:103EB000AFFBC046A02D0000D0160000670B00002D
:103EC00010640110F4630110C54BF0B54E469946DD
:103ED000DE46574645464A46E0B51B6889B0013381
:103EE0001360C04A1378059201331370BE4B0793D9
:103EF000BE4B0693079B1C68002C00D1C7E0002333
:103F00009B4649E0012290460B2B00D8E8E0062DA5
:103F100000D10FE1637A1B0758D5042D00D0E8E1EA
:103F20004B461F68236AFA21FF1A9423E35849007D
:103F30009A469823E6580433E058704350440DF0F5
:103F400083F8874200D8BDE143460133DBB298468F
:103F500001239A46666F002E00D1FDE04023E25E09
:103F600053009B185B00BB4241D9257D032D5AD0DD
:103F7000092D00D109E14346002B00D0ECE0237F5E
:103F8000627F0133DBB2E56823779A4200D810E103
:103F9000A3462C00002C7AD0257D002D00D1E6E12F
:103FA000012D00D1E0E10A2D00D1DAE1059BA27FCD
:103FB0001B789A4200D11FE1A3774223E35C022DD4
:103FC000A0D1052B00D88BE001239846666F002E08
:103FD00000D174E14B461F68236AFF1A00239A46FA
:103FE0004023E25E53009B185B00BB42BDD8706863
:103FF000356800280CD0FFF733FB31000420FEF7B2
:1040000057FF002D0AD02E00706835680028F2D1C5
:1040100031000420FEF74CFF002DF4D10023257D54
:104020006367032DA4D14B46226A1B689B1A282B79
:1040300000D8B1E09023E6582000FFF74DFE5A4625
:10404000079B1B68002A00D167E19C4200D197E1E1
:10405000E368D3605346002B00D04EE1237D2569F1
:10406000E768012B00D188E121000220FEF720FF44
:104070000023069C2370002E07D00D212800494202
:10408000B0472378002B00D034E73C1E84D1584E33
:10409000002431684D46002904D11AE00C00C9689B
:1040A000002916D00B7D0A2B00D063E12B680A6A29
:1040B0009B1AF02BF2D93368002C00D13AE19942D7
:1040C00000D166E1CF68E7600220FEF7F1FE391EFD
:1040D000E8D109B0F0BCBB46B246A946A046F0BD47
:1040E000A123E35C9846002B00D188E0236F002BCE
:1040F00000D051E1E36E002B00D144E1A223E35C48
:104100000B2B00D906E14246A0213A4BD25C635CFE
:10411000934200D207E16023E15A002925D1200013
:1041200003F026FC002826D0257D00239846062D86
:1041300000D0EFE6638BDB0600D5B2E0637A1B07A5
:1041400000D543E7666F002E00D043E700239A4670
:104150004346002B00D112E79023E658012D00D8EA
:104160006DE70A2D00D067E769E7200002F0BAFC8E
:10417000002800D1EEE0A0230022E254A132A35C8B
:10418000062BD1D80133A354CEE74B46226A1B68D5
:104190009B1AF02B00D94DE74346002B00D049E78E
:1041A000237F627F0133DBB2E56823779A4200D92F
:1041B000EEE60023069A237713708C33E358002B26
:1041C0000AD0210020699847069B1B78002B00D05D
:1041D00090E6002800D0DBE6200003F0D1F8D7E617
:1041E000CCDC002022DD0020BCDC002020DD002013
:1041F000D0DC00208F7A0110A346E468CAE63023A1
:10420000E25E6849238E8B4202D801331AB22286BD
:104210004023E35E934200DD79E6200002F05EFE7B
:10422000257D002807D0236F002B00D06FE6E36EBA
:10423000002B00D16BE6022D14D03C22A35E3E2160
:10424000625EDB109B184222A15C57480A1C0C29B5
:1042500077D8D2B2825C93408022120293426EDA07
:104260004022A3520023482023866033E15A255A76
:10427000628E0B1CA94200D92B1C9BB250005B081C
:1042800085B2191CAB4200D2011C4A23E152023B09
:10429000E252002222332000E25203F097FA257DF9
:1042A00035E64B461F68236AFF1A282F00D849E7D6
:1042B00043460133DBB2984600239A464AE6002380
:1042C0009A4652E6A323E35CFA215E43300049009C
:1042D00050440CF0B9FE874200D833E7200003F0C9
:1042E000D9FA002800D071E6A322A35C0133A354BD
:1042F0006CE6072D00D113E668E6238B626A216D18
:104300000293E38A20000193231D0093230002F00F
:10431000B3FEA3E601239846F9E59C423FD1E3684A
:10432000079A136096E60133DBB26354934200D2DE
:10433000FBE6F0E6994229D1CF683760C4E61B4B13
:104340008EE70C22D2B2825C93408022120293420A
:1043500086DBF4E7200003F013F8002800D00AE71A
:10436000E2E61348FCF754F91248FCF751F91248F9
:10437000FCF74EF91148FCF74BF91148FCF748F9E6
:104380001048FCF745F91048FCF742F90F48FCF7D4
:104390003FF90F48FCF73CF90E48FCF739F90E4895
:1043A000FCF736F9FE7F0000987A0110FF7F0000CD
:1043B000906401106464011038640110806501107C
:1043C000BC63011028650110F0640110D86501106C
:1043D000B0650110BC6401105465011070B5041E75
:1043E00016D06068256800280CD0FFF739F9210045
:1043F0000420FEF75DFD002D0AD02C0060682568C2
:104400000028F2D121000420FEF752FD002DF4D146
:1044100070BDC04610B5041E08D04068002801D009
:10442000FFF71EF921000420FEF742FD10BDC04633
:1044300070B5051E0DD00420FEF71AFD041E06D02F
:10444000102229000DF0D6F96068FFF71FF920004F
:1044500070BD0148FCF7DCF80066011010B50028BB
:1044600006D0037D012B03D90A2B01D0FFF734FCC2
:1044700010BDC04610B50C1E47D0002848D00368B8
:104480008B4204D12FE0DA68A24224D01300002B23
:10449000F9D10023E360237D002B0FD1638BDA0772
:1044A00029D4E36E002B36D1236F002B36D1636FF6
:1044B000002B36D100232375E38210BD0A2BF0D0E8
:1044C000012BF7D02000FFF707FC237D0A2BE8D053
:1044D000012BEFD0E2E7E268DA600023E360237D9E
:1044E000002BEBD1DAE7CB6803600023E360237D88
:1044F000002BE3D1D2E7022213436383200002F0B2
:104500003FFF237D012BD5D0CBE70748FCF780F890
:104510000648FCF77DF80648FCF77AF80548FCF7F2
:1045200077F80548FCF774F81C660110386601102E
:1045300058660110706601108C660110F0B54E4689
:104540004546DE465746E0B505000E0087B0002818
:1045500076D0037D012B00D1B0E00A2B00D19BE087
:10456000026D9246426A05929022825893460269F1
:104570009146C28A9046002B69D1002A6FD1002350
:10458000002698462C6F002C16D0606827680028FB
:104590000CD0FFF765F821000420FEF789FC002FFE
:1045A0000AD03C00606827680028F2D1210004206E
:1045B000FEF77EFC002FF4D1EC6E002C16D0606864
:1045C000276800280CD0FFF74BF821000420FEF7E5
:1045D0006FFC002F0AD03C00606827680028F2D1E9
:1045E00021000420FEF764FC002FF4D16C6F002C36
:1045F00016D06068276800280CD0FFF731F821003A
:104600000420FEF755FC002F0AD03C0060682768A4
:104610000028F2D121000420FEF74AFC002FF4D13B
:10462000002E2CD12B7D012B45D029000220FEF736
:104630003FFC5B46002B03D00D2148464942D8473A
:1046400007B0F0BCBB46B246A946A046F0BD290063
:104650001C48FFF70FFF01221B4B1A7092E71B4A01
:104660001368834208D1C36813600023EB6086E7B8
:10467000DA68AA421CD01300002BF9D1F5E72B8B86
:1046800051460293434601932B1D009328002B00B3
:10469000059A02F0F1FCC5E729000D48FFF7EAFE94
:1046A0002B7D012B07D029000220FEF701FCC7E774
:1046B000EA68DA60D9E70748FBF7AAFF0648FBF784
:1046C000A7FFC046BCDC002020DD0020C0DC0020AD
:1046D000D0DC0020BC630110A466011010B50121DC
:1046E000FFF72CFF10BDC046F0B5C646060000B56A
:1046F0000220FEF7BDFB041E2AD0A42200212000C8
:104700000DF072F86423624A6675E252614B4022F2
:10471000A362FF23E372F93BA352E3875E4B44326B
:1047200023635E4B1B6823625D4B1B78A3775D4B55
:10473000A3645D4BA35094235C4AE2505C4A04336B
:10474000E25009220433E250200080BCB846F0BD9C
:10475000584B082798461D68002D0AD02800438B27
:10476000ED681F42F8D0BB434383FFF78BFA002D5F
:10477000F4D1514B1B68002B11D00021474A10681F
:104780001A6A821A914201D811001C00DB68002BC2
:10479000F6D1002C03D001212000FFF7CFFE02202C
:1047A000FEF766FB041EA8D143461B68002B16D0FB
:1047B0003A4A0021106802E0DB68002B09D01A7D1C
:1047C000092AF9D11A6A821A9142F5D811001C00FF
:1047D000F2E7002C03D000212000FFF7AFFE0220FB
:1047E000FEF746FB041E00D087E743461B68002BFC
:1047F00016D02A4A0021106802E0DB68002B09D09D
:104800001A7D082AF9D11A6A821A9142F5D8110044
:104810001C00F2E7002C03D000212000FFF78EFEE1
:104820000220FEF725FB041E00D066E773B2002BC2
:104830002BDB002E22D0320043461B68013AD2B255
:10484000002B1BD015490F680021884607E0186A25
:104850003A1A90461C000A00DB68002B08D0597DEC
:104860009142F4D3F8D1186A3D1A4545F4D3EFE7E5
:10487000002C03D001212000FFF760FE0220FEF78C
:10488000F7FA041E00D038E75EE77F22D4E7C0467F
:10489000A02D0000A02DA02DFFFF1802CCDC0020D1
:1048A00022DD00200100A02D454A001000DD6D0032
:1048B000F8240100BCDC0020D0DC002030B504006E
:1048C00085B0002800D19DE0037D002903D0042B92
:1048D0001AD0072B18D0012B00D168E0022B4AD048
:1048E000002B5DD1E38A002B4FD04B4A1368A342C3
:1048F00005D184E0DA68A24200D17DE01300002BEC
:10490000F8D10023E36040E0A36F002B44D0638B19
:10491000DB0600D479E0238B626A216D0293E38A7F
:1049200020000193231D0093230002F0A5FB237DAB
:10493000012B04D90A2B02D02000FFF7CDF9374A0A
:104940001368A34214D1E368136000230122E360DB
:10495000334B1A70334B1B68A34225D0237D012BA8
:1049600013D13148FBF754FEDA68A24241D013005C
:10497000002BF9D1E9E721002848FFF77BFD012250
:10498000274B1A70237D012BEBD021000220FEF76C
:104990008FFA002005B030BD244B228D9A42B6D14B
:1049A0002000FFF76FF9F5E701F0C6FFF1E72049B6
:1049B00000200D000C354B681B68002B05D0DA6F0A
:1049C000944211D0DB68002BF9D104318D42F2D131
:1049D00021001848FFF74EFD237D012B18D0210040
:1049E0000320FEF765FAD4E7D867DB68002BE6D131
:1049F000EBE7E268DA60A8E7E268DA6081E7E3689B
:104A000013607EE70C48FBF703FE0C48FBF700FE43
:104A10000B48FBF7FDFDC046C0DC0020BCDC0020DD
:104A200020DD0020C4DC0020BC630110A02D0000AC
:104A3000807A0110C8DC0020D8660110F8660110E9
:104A400014670110F0B5C6460800140000B500292F
:104A50004AD0002A2CD00B7D012B48D01389098D18
:104A6000264ACB189BB293421ED913009046476A40
:104A7000468E234AC56A0385B844311C964200D944
:104A8000111C424689B24919511A21D5ED1B1CD47B
:104A900080235B029D422DD245852000FEF7E0FD7C
:104AA000002080BCB846F0BD9942DED81A00DDE790
:104AB000002BF5D10B7D012B03D010224B8B134320
:104AC0004B830121FFF7FAFEEBE700234385E4E780
:104AD00043850C4B521B9A42DFD90222438B13436E
:104AE000438302F04DFCD8E710204042D9E7064846
:104AF000FBF78EFD0548FBF78BFDC046A02D00009F
:104B0000D0160000670B000010640110F463011060
:104B1000F8B5041E32D00023866F777B8367843319
:104B2000C558002D0CD00023320021000069A84791
:104B300000280BD00D301ED00520A6674042F8BDDE
:104B40003189FFF775F93000FEF78AFDBF0610D5F1
:104B5000238D0C4A934201D0013323858423E558E9
:104B6000002D06D00023002221002069A8470D3027
:104B700001D00020E3E70D204042E0E71020404252
:104B8000DDE7C046A02D0000F0B54F464646D646AC
:104B9000C0B5204D204F2B7801332B701F4B994609
:104BA000012398464B461C68002C1BD008262B7806
:104BB000A27F9A421BD04246A377638B1A421ED132
:104BC0001E4216D1E3689A46A36F002B07D000233C
:104BD00020003B70FFF79CFF3B78002BE2D154464E
:104BE000002CE4D1E0BCBA46B146A846F0BDE4686A
:104BF000F6E7B34320006383FFF744F8E2E70222BD
:104C000013436383200002F0BBFB0322638B9343B7
:104C10006383D5E722DD002020DD0020BCDC0020FE
:104C200010B5FFF7B1FF054A13780133DBB21370FB
:104C3000DB0700D410BDFFF747F9FBE721DD0020BB
:104C400010B5002806D0054B054A18681268801870
:104C5000186010BD0348FBF7DBFCC046441200207F
:104C6000CCDC00203067011010B5002A10D00029DC
:104C70000DD00A8E002A0AD0131C282A00D228231D
:104C8000283B1A1C9BB2834200D9021C90B210BD73
:104C90000148FBF7BDFCC0464C67011070B505002C
:104CA0000E00002802D00368002B00D170BD1D4A01
:104CB0001068002804D10CE0002C0AD020002B68DA
:104CC0000268C4689A42F7D10121FFF737FC002C33
:104CD000F4D1154B1C68002C0AD022682B682000E8
:104CE000E4689A42F7D10121FFF728FC002CF4D1A7
:104CF000002EDBD03368002BD8D00C4B1A68002A6A
:104D0000D4D02B681168994205D0D268002ACDD042
:104D100011689942F9D133681360D268002AF0D142
:104D2000C4E7C046BCDC0020C0DC0020C8DC00209A
:104D300070B5446F0600002C18D060682568002804
:104D40000CD0FEF78DFC21000420FEF7B1F8002DF9
:104D50000AD02C00606825680028F2D121000420C8
:104D6000FEF7A6F8002DF4D10023736770BDC0468E
:104D7000F0B5C646634B00B51C88002C31D0624BA1
:104D80009C46002362461380604B1F68002F00D1B1
:104D900072E05F4B5F491D880022002388461600A1
:104DA000944200D8A3E0531CB1B29BB28D421BD8F1
:104DB000591B0139C9B2795C01291BD002291DD0C8
:104DC00000290CD09D4253D952490968CB181B7D4C
:104DD000012B00D891E09A1892B20123DFE76246D6
:104DE000138080BCB846F0BD414609688919097D29
:104DF0000129E3D11A0001360123D1E7911C89B2C0
:104E00009D4221D9434E3668F3181B7D042B20D1D7
:104E10004B1CA3421DDAD31C04329BB292B28D42CA
:104E20001AD8491BC9B2795C09029D421BD85B1B89
:104E3000DBB2FB5C0B43591E374E89B2B14200D93D
:104E4000364B43860123AAE75B1BDBB2FB5C042BDA
:104E5000DED063461980C4E72E4E36687118097D8E
:104E600009029D42E3D92B4E3668F3181B7DE1E71A
:104E70005B1BDBB2FB5CABE7264B00221E6800230A
:104E800015001435944232D9715D531C9BB201292F
:104E900026D0022909D00029A1D0F3181B7D012BAF
:104EA0002BD99A1892B20123EAE7F3181B7D911CC3
:104EB00089B2042BCDD14B1CA342CADAD51C711880
:104EC000ADB20B7D7519297D1B020B43591E124D86
:104ED000043289B292B2A94206D843860123CFE7B1
:104EE0001A0001350123CDE70C4B4386F6E7002B72
:104EF00000D176E763461A8073E7634602321A8070
:104F00006FE7C0460ADD002006DD0020D8DC002067
:104F100008DD0020D4DC0020B3050000B40500004B
:104F2000F0B5D6464F464646C0B5C3680500587B27
:104F30001A7B000210430C00FDF73EFAC0074FD465
:104F400001239A46FE339846274E3268E36894461A
:104F50005A79197912020A43997928890904114367
:104F6000DA792789120660440A43811AC91B2DD4B5
:104F7000587B1A7B00021043FDF71EFA534603428A
:104F800007D127682000FFF745FA002F17D03C0013
:104F9000DBE7EB68587B1F7B000207430120FDF72E
:104FA0000BFA41463843EA6883B2276808401B0A77
:104FB000107353732000FFF72DFA002FE7D1002460
:104FC0002C60E0BCBA46B146A846F0BD101AF7D531
:104FD0006346D21A91B268682981FEF783FAEFE737
:104FE0002000FFF7FBF9EAE7A8DB0020F0B5574601
:104FF000DE464E464546E0B583B007000C1E0192E2
:1050000046D02D4B9B46662398462C4B9A465B46D2
:10501000E1681D684A790B7912021A438B79C879C5
:105020001B04134300061843FDF7CAF92389060041
:105030009946E368AD1B587B1A7B00021043FDF7CD
:10504000BBF94B46ED1A03231840431E98412D1A15
:105050002AD460682568FEF70FFB4346FB5A984246
:1050600027D842461B1ABB52524623891288200079
:105070009B1852461380FFF7CDF94346FB5A002B8D
:105080000ED0002D01D02C00C1E7019B002B0DD0CC
:10509000002003B0F0BCBB46B246A946A046F0BD16
:1050A000002DF5D02C00B2E72000F2E70448FBF712
:1050B000AFFA0448FBF7ACFA081D002004DD00201D
:1050C0009C67011074670110F0B5DE4657464E46E6
:1050D0004546E0B5017D040083B0032901D800F006
:1050E000C6FCAB4B1B78DB0654D4AA4BAA4F0093EB
:1050F0003B889C46009B1A686346002B00D199E0D0
:10510000217D062900D995E0636A991A481E00D5C9
:1051100052E165468146D01A461EEE4200D54DE169
:105120009E4D6868002801D100F0CFFC9C4B99424D
:1051300001D900F0C7FC028989B28A4201D200F08D
:10514000BEFC2B89521A5B1A2B81438992B2994279
:105150000AD90026B446C91A634602814381006811
:1051600089B243898B42F6D3FEF728FA636A009A24
:10517000190A1360EA68517119021371090E1B0EA6
:105180009171D371238D002B00D069E2200002F0D1
:105190007FF857E07F4B834D1A6800936023C35A12
:1051A0009946836D9A46436D28689F1A59D4934255
:1051B00054D04B46D346824500D16CE1666CB04674
:1051C000371A62D4744F3E88B446002E00D1D3E023
:1051D000636B002B95D0A26B121A00D488E7724A39
:1051E0009DB212883C23E15E94466346CA1092B297
:1051F0009B1A5B1B9BB2591808B219B2A0870029F1
:1052000003DA6346D21AAB189BB23E22A15EC010ED
:105210008A10891A40225B189BB2E3871B18A3529D
:10522000002363633B889C46009B1A686346002BFF
:1052300000D065E7636AD11A0BD4218D013BCB18EE
:105240009B1A06D403B0F0BCBB46B246A946A046A2
:10525000F0BD0222638B13436383F3E753461B1AAB
:10526000A7D5524B1B689F7BDB7B1B023B43602710
:10527000E3530237E65B9E4200D2E353666C8346FB
:10528000B0466265A065371A9CD5F343C34200D58A
:105290000CE1236D1B1A00D508E14A23E75A463B6F
:1052A0001900628B11408C46134200D08CE1E68FCE
:1052B0004433B1464026E35A9A463C21635E614638
:1052C000DB104B44A35343460236C31AA1539BB28F
:1052D0006064BA4501D300F0EDFB8020000102407C
:1052E00050424241608E01325043021C80B29842CB
:1052F00000D91A1C130053449BB2534500D280E1DD
:105300004822A352E26E216F2000FFF76FFEE16E8C
:10531000020020672000FFF769FE276FE0667B42EE
:105320007B415B42238600232377002800D16DE177
:1053300064211F4A635A12889B186352638B1A05B3
:1053400000D4B6E0002F00D1C2E2F9684A790B79A7
:1053500012021A438B79C8791B04134300061843C1
:10536000FDF72EF8E36CC01A00D5A2E0638B114A5A
:10537000094F134063839DE049465B4451448B428F
:1053800000D108E1636B002B00D024E752E7C04650
:1053900017DD0020A8DB00200CDD0020F831002004
:1053A000FEFF0000081D0020CCDC0020D4DC002023
:1053B00004DD0020FFF7FFFF8146D01A002800DA45
:1053C000E4E04846218DC14200D5DFE69A4200D193
:1053D00045E1656F002D00D17FE2E86843790179EE
:1053E0001B020B43817909041943C3791B060B4344
:1053F000934200D10DE1561EB446D11A00D5B2E257
:10540000A8462D68002D5BD0E868437901791B021E
:105410000B43817909041943C3791B060B4393425B
:1054200000D1F8E04146C9688A4609798946514663
:105430004E46497909020E435146897909040E43C3
:105440005146C979090631436646711AD8D4991A6A
:105450000129D5D4C148FEF7EBFF071E00D195E620
:10546000009B19684346D868437902791B021343AD
:10547000827912041A43C3791B06134342461289E8
:10548000D2188A1A00D5A8E24346290038001F60C6
:10549000FFF746FD7AE6B24B1B689F7BDB7B1B0266
:1054A0003B43994500D2E2E64B4687E6200001F0F7
:1054B000EFFEAC4F636B002B00D119E628688AE63B
:1054C0009B1A00D462E6037B407B00021843FCF782
:1054D00073FFC00700D559E6A048FEF7A9FF434671
:1054E0001860002800D151E6009B1A684346D8682E
:1054F000417903790902194383791B040B43C1796C
:105500000906194343461B895B18D31A00D5A4E248
:105510003988636A5B1A218D5B189B1A00D435E6C3
:1055200043461B68DB68587B1A7B00021043FCF77C
:1055300043FF43461B68C00700D5A1E2009E228DB1
:1055400031685868521A616A891889B21981FDF761
:10555000C9FF43461B681D89DB68587B1A7B000224
:105560001043FCF729FF0322030013405A1E934106
:10557000EB1832689BB23B80616A9B18228D5218EF
:10558000934200D102E67848FBF742F80222638B8F
:1055900013436383FAE53021635E002B00DAF1E602
:1055A000804500D0EEE64321635CFF2B00D1E8E1AB
:1055B0000133DBB26354032B00D9E2E100D0E1E612
:1055C000200001F027FD75E79A43482362830022FB
:1055D000E7522233E2523C21635EE18FDB105B181D
:1055E00040216352831B023162529BB260646A2184
:1055F000625AD3189BB29A4225D8BB4224D2635236
:1056000080E6012248235242E2527BE66833E052B0
:105610008EE60023984651482B8902899A4200D889
:10562000B4E52B68002B00D1B0E5FEF701FF0028A0
:1056300000D1ABE54346002B00D19BE11860290067
:10564000FFF76EFCA2E5494B6A22DB1BA352638E77
:10565000FB189BB2BB42D4D3223AA35252E63F4D31
:105660002B899846EB68587B1A7B00021043FCF7A5
:10567000A3FE032303405A1E934143449BB23B8045
:10568000228D934200D932E1616F002900D173E18C
:10569000EB68587B1A7B00021043FCF78DFE636FAA
:1056A0009846C0076CD40123994601339A46434675
:1056B000002B0BD1DEE143461B6840469B46FEF7BC
:1056C000A9FE5B46002B00D16CE1D846009A3B88CE
:1056D00012689C4693464246D268DC445179107960
:1056E000090201439079664600040843D17909060E
:1056F0000143404600894018301A00D54CE1507BE8
:10570000137B00021843FCF757FE4B460342D2D0EE
:10571000EB68587B1A7B00021043FCF74DFE5346A2
:105720000342C8D1EB6801201A7B5B7B1B02134349
:105730009B46FCF741FE5B46EA68034398B213734D
:10574000030A53732B899B46FCF736FE0323034061
:105750005A1E93415B443B80ADE7C046F8310020C0
:10576000D4DC00200CDD002008680110FFFF0000E1
:1057700043461B6840466367FEF74CFE636F9846DE
:10578000002BF5D1009A3B8812689446228D9C44E8
:1057900061466162934200D98EE1D21A22852000CF
:1057A000FEF71AFB6B681A89002A03D0C84A1360F7
:1057B00000236B60EB68587B1A7B00021043FCF7F8
:1057C000FBFDC00704D52021C24A13780B43137098
:1057D000656F002D73D0BE4B03279946BD4B98468D
:1057E0001FE0FDF767FF00236B60EB68587B1A7BB7
:1057F00000021043FCF7E0FDC0070AD54346202213
:105800001B78134342461370237D042B01D10333CD
:1058100023752B6828006367FEF7FCFD656F002D7C
:105820004DD0EA68537911791B020B439179090431
:105830001943D3791B060B43616A8B423FD1009910
:105840000B602B89507B9A46137B00021843FCF7B0
:10585000B3FD3840431E9841636A5344C018238DFA
:1058600060629A462B899B46EB68587B1A7B000244
:105870001043FCF7A1FD3840431E9841584482452F
:1058800000D214E12B899A46EB68587B1A7B000200
:105890001043FCF791FD3840431E9841238D50443E
:1058A0001B1A23852000FEF797FA69680B89002BE5
:1058B0009BD04B461868002893D1196093E70122CA
:1058C000638B1A420FD09343022213436383B9E4DC
:1058D000002800D14BE5C16838E57F48FEF7A8FDF8
:1058E0006067FFF753FC012213436383AAE4EB686C
:1058F000587B1A7B00021043FCF75EFDEB681A7BB5
:105900005B7B1B0213439846C00753D4238D40464C
:105910002B81FCF751FD2989800702D5013989B215
:1059200029816868FDF7DEFD2B899846EB68587B76
:105930001A7B00021043FCF73FFD032303405A1E6D
:10594000934143449BB200993B80228D0968606A71
:1059500059181018814200D015E6606F8C46002857
:1059600000D095E614E75C48FEF762FD002801D1FF
:10597000FFF70CFC606762E600990968C91861626C
:105980000BE74822638EA15ACB189BB2994201D9EA
:1059900001235B42A35213E68A1B26D44246626768
:1059A000228DF5E6009A3B881268944600229C44BA
:1059B0009046F3E71800FCF7FFFC3E231840FCF785
:1059C000FBFC4246454B1A40104383B29846424680
:1059D000EB68120A18735A7398E7C91A434689B2DA
:1059E00058681981FDF77EFD4EE55B46C91AEB68E4
:1059F0002981587B1A7B00021043FCF7DDFC8007ED
:105A000002D52B89013B2B8129896868FDF76AFD46
:105A10002B899946EB68587B1A7B00021043FCF7F0
:105A2000CBFC032303405A1E934142464B44D068AB
:105A30009BB23B80417902790902114382791204B9
:105A40000A43C17909061143009A8C4612689A18D4
:105A50008A42A3D02248FAF7DBFD4346511A89B2A5
:105A600058681981FDF73EFD009B1A6850E51D48F6
:105A7000FAF7CEFD009A3B88126894469C448DE765
:105A8000DB685D7B1A7B2D0215432800FCF794FC34
:105A90003E231840FCF790FC4346104A1B68154013
:105AA0002843D96882B2120A08734A7346E50E4841
:105AB000FAF7AEFD57469AE50C48FAF7A9FD0C48EF
:105AC000FAF7A6FD0B48FAF7A3FD0B48FAF7A0FD7D
:105AD0009CDB00201EDD0020F8310020FFC0FFFF0E
